:02000000202EB0
:10000800FF00030E83018316DB000A08DA008A0169
:100018007C088312A1007D08A0008B130B1C5C28B0
:10002800061A2B28861E2B28061F2B28861F2B28EE
:100038008230FC00DD30FD00FD0B2028FC0B202861
:100048000000000001308316C5000030C60083128E
:10005800061E4328861A4328061F4328861F43285E
:100068008230FC00DD30FD00FD0B3828FC0B382801
:100078000000000002308316C5000030C60083125D
:10008800061E5B28861E5B28061B5B28861F5B28CE
:100098008230FC00DD30FD00FD0B5028FC0B5028A1
:1000A8000000000003308316C5000030C6000B10A6
:1000B8008B1783122108FC002008FD0083165A08BC
:0C00C8008A005B0E8300FF0E7F0E090013
:0C00D40000000000000000000000080018
:1000E000243083120313FC00B530FD00FD0B76288D
:0A00F000FC0B762800000000080059
:0E00FA00533083120313FD00FD0B8128080014
:1001080083120313FB01FA01F9018030F800F10CA6
:10011800F00C031C98287408F90775080318750F64
:10012800FA070318FB0A0310F01FA0287408FA073F
:1001380075080318750FFB07FB0CFA0CF90CF80C83
:10014800031C8B287B08F3007A08F2007908F10079
:060158007808F000080029
:10015E0083120313F801F9011030FC00710DF80D34
:10016E00F90D7408F8027508031C750FF9020318CF
:10017E00C7287408F80775080318750FF9070310D8
:0A018E00F00DF10DFC0BB528080080
:1001980083160313EE1BD32883128813D5288312E2
:1001A800881783166E1BDB2883120813DD28831239
:1001B80008178316EE1AE32883128812E52883129B
:1001C800881683166E1AEB2883120812ED288312FC
:1001D800081683164118F32883120815F528831288
:1001E800081188156A2088118316EE19FE288312D3
:1001F800881300298312881783166E19062983121B
:1002080008130829831208178316EE180E2983127B
:10021800881210298312881683166E1816298312DD
:100228000812182983120816831641181E298312EA
:10023800081520298312081188156A208811831649
:0C024800411C2829702029297D20080075
:1002540083160313EC0105306C02031838296C086B
:100264006B07840020308000EC0A2D296C086B0792
:1002740084008001EC036C086B07ED000A30F40085
:10028400F5016908F0006A08F100AF207808F00071
:100294007908F1003030F00783166D088400700887
:1002A40080000A30F400F5016908F0006A08F100E2
:1002B400AF2070088316E9007108EA000030710667
:1002C400031D662900307006031D69296B29EC03A0
:0402D4003D290800B8
:1002D800103083120313FD00FD0B70290000080085
:1002E800831603130711831212150C3097040800A4
:1002F800831603131208013EF000F1010318F10AF6
:100308006908F400F50184200630F2007008F40052
:100318007108F500720803199629F50CF40CF51309
:10032800FF3E8F290430F1007408F00071080319AA
:10033800A129F00D7010FF3E9B2930307005F300A5
:100348007408F0007508F100F10CF00CF113F10CD1
:10035800F00CF113700895000F3097057308970497
:0203680008008B
:10036A008316031341106908EE00CC20831641144A
:02037A00080079
:10037C0083160313071583121211F030970508002A
:10038C00243083120313FD00FD0BCA290000080062
:10039C0083160313E901EB01EC011030ED0004307E
:1003AC006C020318FC29F0308312860083166D0949
:1003BC0086006A206A200F3083120605F000700850
:1003CC008316EA0070080319F6296B08E9006A081D
:1003DC000319F429EA0CEA13E90AED290430EC00BC
:1003EC00ED0D6D100430EB07EC0AD5296908F0000F
:0203FC000800F7
:1003FE0083160313E501E6016008E7006108E800D3
:10040E0080306106F00080307002031D102A00302B
:10041E00600203181E2A0130E5000030E600600875
:10042E00003CE7006108031C013EE801E802670892
:10043E00E9006808EA006208EB002A210630E300B2
:10044E000030E4006408003C031D2F2A6308003CC2
:10045E0003184A2A63086207F20001306302F000B3
:10046E000030031C013E6402F10070086207840034
:10047E000008F00072088400700880000130E3026A
:10048E00031CE403292A62088400203080006508DA
:10049E0066040319682AE301E40163086207840015
:1004AE000008203A031D5F2AE30A0319E40A542ABE
:1004BE000130E302031CE4036308620784002D305D
:0404CE0080000800A2
:1004D200CE217008E0000F3083120605F0000319E8
:0E04E200742A6C216C2A83166008F000080052
:1004F0008312031307147421FF30F000F1018316F7
:100500002F08F4003008F50084206430F400003037
:0E051000F500AF2070088316E9007C2108007A
:10051E00831203139F01C0309F0483161F179F176A
:10052E006008F000F00D7010F00D7010F00D7010EE
:10053E00700883129F041F14C6211F151F1DA92AA0
:10054E000000A52A1F101E08F100F00183161E08D8
:08055E00F0040030F104080074
:10056600C52A803083160313E000D82AC030E00085
:10057600D82A9430E000D82AD430E000D82A803037
:10058600E000D82A831603136008013A0319B42A37
:100596006008023A0319B92A6008033A0319BC2A0B
:1005A6006008043A0319BF2AC22A6103F0006008F2
:1005B600F0077008E0007008EE00CC2083164110AA
:1005C600E30163086207840000080319F22A63083E
:1005D600620784000008E900B521E30AE42A411411
:0205E60008000B
:1005E80083160313E101E2016008F2006008F300DA
:1005F800720884000008203A031D072B6108620472
:10060800031D072B142B0130E1000030E2007208B3
:1006180084000008F0007308840070088000F30A62
:100628007208F100F20A710884000008003A031DFC
:08063800FC2A6008F000080034
:0A064000831203130710BE21080007
:10064A00013083160313E0000130E1006530E20057
:10065A00B322CA30E000F4227008E2000130E00060
:10066A000730E100B3220130E0000A30E1006C30CB
:06067A00E200B3220800BB
:1006800083160313E0018F227008C8007108C900A7
:100690000530F4000030F500842070088316C8008F
:1006A0007108C9000A30F4000030F500AF2070086E
:1006B0008316C8007108C90000307102031D622B47
:1006C000203070020318812BC801C901E001E1014B
:1006D000CA30E200FF210130E0000730E100A03025
:1006E000E200B3220130E0000C30E1006130E200B2
:1006F000B3220230E0000930E1005E30E200B322B4
:10070000AF2B0130E0000C30E1005A30E200B322A0
:1007100020304802F0000030031C013E4902F10085
:100720007008C8007108C9000530F4000030F500F9
:10073000842070088316C8007108C9000930F400CD
:100740000030F500AF2070088316C8007108C9009A
:100750007008E0007108E100CA30E200FF210800E3
:100760000030831603134902031DB82B1A304802C8
:100770000318C52BAF01B0010230E0000930E100E1
:10078000AA30E200B32220232B2C0030831649022A
:10079000031DCC2B1D3048020318D42B0A30AF00A8
:1007A0000030B00078222B2C003083164902031D44
:1007B000DB2B203048020318E32B1E30AF00003043
:1007C000B00078222B2C003083164902031DEA2B3F
:1007D000233048020318F22B3230AF000030B00053
:1007E00078222B2C003083164902031DF92B26306A
:1007F00048020318012C4630AF000030B0007822C8
:100800002B2C003083164902031D082C2930480286
:100810000318102C5A30AF000030B00078222B2C77
:10082000003083164902031D172C3230480203188A
:100830001F2C6430AF000030B00078222B2C6430C5
:100840008316AF000030B0000130E0000C30E10052
:08085000A630E200B32208000B
:10085800831603132F08E0003008E100B130E200EE
:10086800FF210230E0000130E1004130E200B32214
:1008780000303002031D422C64302F0203185D2C17
:10088800B130E000F4227008E2000230E0000830E5
:10089800E100B3220230E0000A30E1003F30E2001C
:1008A800B3220230E0000B30E1003D30E200B32219
:1008B8006E2CB130E000F4227008E2000230E00053
:1008C8000830E100B3220230E0000B30E1002C30A8
:1008D800E200B32200303006031D742C00302F06CE
:1008E800031D7E2C0230E0000D30E1002730E200CD
:1008F800B322B52C00303002031D842C21302F0286
:1009080003188E2C0230E0000D30E1002230E200A6
:10091800B322B52C00303002031D942C42302F0234
:1009280003189E2C0230E0000D30E1002E30E2006A
:10093800B322B52C3008003C031DA42C2F08633CBF
:10094800031CAE2C0230E0000D30E1003830E2002C
:10095800B322B52C0230E0000D30E1003330E20064
:04096800B3220800AE
:10096C0083160313C70169227008C7007008003A88
:10097C000319732D47080319CE2C00304606031DAE
:10098C00C92C01304506031DCE2C0130DC00CF2CC8
:10099C00DC01E92C0A30AF000030B0007822FA2CD0
:1009AC0028308316AF000030B0007822FA2C463085
:1009BC008316AF000030B0007822FA2C0130831679
:1009CC00AC00FA2CFA2C5C08013A0319D02C5C0808
:1009DC00053A0319D62C5C08093A0319DD2C5C087E
:1009EC000D3A0319E42CE82C831647080319092D3A
:1009FC0000304606031D042D02304506031D092D4B
:100A0C000130DC000A2DDC01272D1430AF00003042
:100A1C00B0007822392D32308316AF000030B00090
:100A2C007822392D50308316AF000030B000782278
:100A3C00392D64308316AF000030B0007822392D88
:100A4C00392D83165C08023A03190B2D5C08063A03
:100A5C000319112D5C080A3A0319182D5C080E3A7B
:100A6C0003191F2D262D831647080319482D003016
:100A7C004606031D432D03304506031D482D01304A
:100A8C00DC00492DDC01622D1E30AF000030B000BF
:100A9C007822732D3C308316AF000030B0007822E2
:100AAC00732D5A308316AF000030B0007822732DAE
:100ABC008316AC01732D732D5C08033A03194A2D70
:100ACC005C08073A0319502D5C080B3A0319572D93
:0C0ADC005C080F3A03195E2D612D080024
:0C0AE800831203139501171297120800E7
:0A0AF400FF3083160313860008008C
:0E0AFE00831603132E088A002D0882000800BC
:100B0C00831603138811081108128812081388130E
:100B1C008312881108118813081388120812702088
:100B2C00702070208816081688156A20881170208D
:100B3C0088156A208811702088156A208811702009
:100B4C00081288156A208811702088156A2088116F
:100B5C008812881788156A20881170208813081647
:100B6C0088156A208811081288156A20881170204F
:100B7C0088156A208811081688156A20881170203B
:100B8C00081288156A208811881708178816081605
:0E0B9C0088156A208811702083164114080005
:100BAA00FF3083160313C200FF30C300FF30C400B6
:100BBA00FF3083129F01C0309F0483161F179F17AF
:060BCA0083121F14080055
:100BD0008625D5257A25F03086000710FF30831250
:100BE000860012109210C7308316920074250800F8
:100BF000831603132C08013A031D082E0130E00070
:100C00000130E1004930E200B322B6242C24132E37
:100C10000130E0001030E1006E30E200B3224023EA
:080C200025232C24B023080059
:100C28007F258A110A128000840AAD0A0319AE0AC8
:080C3800F003031D142E080057
:0C0C40008626E825B624F825222E252E55
:100D0C00223084004C3083120313F0002B308316F6
:100D1C00AD000630AE001426A03084000630F00082
:100D2C0077308316AD000630AE0014266E3084008A
:100D3C000230F00083308316AD000630AE0014266E
:100D4C00A63084000630F0007D308316AD000630EE
:060D5C00AE0014260800A1
:0A0C56004C344F345734203400347E
:0A0C60004F3446344634203400348B
:040C6A0025340034F9
:0A0C6E004D3449344434203400347E
:0A0C78004D34413458342034003468
:0A0C82004834493447344834003444
:040C8C0025340034D7
:040C900020340034D8
:100C9400533470346534653464343A342034003465
:100CA40020342034203420342034203420342034A0
:100CB40020342034203420342034203420344D3463
:020CC4000034FA
:080CC6002034203420340034F6
:060CCE0020342034003444
:080CD40028342D3429340034CA
:0E0CDC00543465346D3470343A3420340034AE
:040CEA00433400345B
:0C0CEE00203420342034433420340034FF
:080CFA002834213429340034B0
:040D02002034003465
:040D06004134003440
:02400E004A2F37
:00000001FF
