:02000000D22EFE
:10000800FF00030E83018316D7000A08D6008A0171
:100018008B138B1756088A00570E8300FF0E7F0E2E
:020028000900CD
:0C002A00000000000000000000000800C2
:10003600243083120313FC00B530FD00FD0B21288C
:0A004600FC0B212800000000080058
:0E005000533083120313FD00FD0B2C28080013
:10005E0083120313FB01FA01F9018030F800F10C51
:10006E00F00C031C43287408F90775080318750F64
:10007E00FA070318FB0A0310F01F4B287408FA073F
:10008E0075080318750FFB07FB0CFA0CF90CF80C2E
:10009E00031C36287B08F3007A08F2007908F10079
:0600AE007808F0000800D4
:1000B40083160313EC1B61288312881363288312AD
:1000C400881783166C1B6928831208136B28831204
:1000D40008178316EC1A7128831288127328831266
:1000E400881683166C1A7928831208127B288312C7
:1000F40008166F187F280815802808118815152000
:1001040088118316EC198928831288138B2883128B
:10011400881783166C199128831208139328831265
:1001240008178316EC189928831288129B288312C7
:10013400881683166C18A12883120812A328831228
:1001440008166F18A7280815A8280811881515205F
:0E01540088116F1CAF281B20B028282008003F
:1001620083120313F801F9011030FC00710DF80D30
:10017200F90D7408F8027508031C750FF9020318CB
:10018200C9287408F80775080318750FF9070310D2
:0A019200F00DF10DFC0BB72808007A
:10019C0083160313EA0105306A020318DC286A0887
:1001AC006907840020308000EA0AD1286A086907B0
:1001BC0084008001EA036A086907EB000A30F40046
:1001CC00F5016708F0006808F100B1207808F0002C
:1001DC007908F1003030F00783166B088400700842
:1001EC0080000A30F400F5016708F0006808F1009F
:1001FC00B12070088316E7007108E8000030710622
:10020C00031D0A2900307006031D0D290F29EA036E
:04021C00E1280800CD
:1002200083160313071583121211F0309705080087
:10023000831603130711831212150C30970408005C
:10024000831203136F1083166708EC005A206F1493
:020250000800A4
:10025200831603131208013EF000F1010318F10A9C
:100262006708F400F5012F200630F2007008F40050
:100272007108F500720803194329F50CF40CF51303
:10028200FF3E3C290430F1007408F00071080319A4
:100292004E29F00D7010FF3E482930307005F300F2
:1002A2007408F0007508F100F10CF00CF113F10C78
:1002B200F00CF113700895000F309705730897043E
:0202C200080032
:1002C400243083120313FD00FD0B6629000008008F
:1002D4008312031307141821FF30F000F101690899
:1002E400F4006A08F5002F206430F4000030F500B3
:0C02F400B12070088316E70029210800E3
:1003000083160313DF01E0015E08F2005E08F300CC
:10031000720884000008203A031D93295F086004D6
:10032000031D9329A0290130DF000030E00072088E
:1003300084000008F0007308840070088000F30A4D
:100340007208F100F20A710884000008003A031DE7
:0803500088295E08F000080096
:10035800831203139F01C0309F0483161F179F1732
:100368005E08F000F00D7010F00D7010F00D7010B8
:10037800700883129F041F1462211F151F1DC629B0
:100388000000C2291F101E08F100F00183161E0884
:08039800F0040030F10408003C
:1003A00083160313E301E4015E08E5005F08E6003D
:1003B00080305F06F00080307002031DE1290030BC
:1003C0005E020318EF290130E3000030E4005E080C
:1003D000003CE5005F08031C013EE601E6026508FB
:1003E000E7006608E8006008E900CE200630E1007A
:1003F0000030E2006208003C031D002A6108003C56
:1004000003181B2A61086007F20001306102F00046
:100410000030031C013E6202F10070086007840096
:100420000008F00072088400700880000130E102CA
:10043000031CE203FA29600884002030800063086E
:1004400064040319392AE101E201610860078400AC
:100450000008203A031D302AE10A0319E20A252A7E
:100460000130E102031CE2036108600784002D30C3
:040470008000080000
:100474004C2A803083160313DE005F2AC030DE006E
:100484005F2A9430DE005F2AD430DE005F2A803099
:10049400DE005F2A831603135E08013A03193B2A20
:1004A4005E08023A0319402A5E08033A0319432AF4
:1004B4005E08043A0319462A492A5F03F0005E08DD
:1004C400F0077008DE007008EC005A206F108316E5
:1004D400E101610860078400000803197A2A6108B1
:1004E400600784000008E70020218316E10A6B2AD4
:0604F40083126F140800E2
:0A04FA0083120313071010210800FD
:10050400013083160313DE000130DF004630E000C3
:100514003A22C1308316DE0080217008E0000130E9
:10052400DE000730DF003A2201308316DE000A3095
:0A053400DF004430E0003A22080026
:10053E000030831603135202031DA72A1A305102EC
:10054E000318B62A8312E901EA0102308316DE008F
:10055E000930DF004D30E0003A227D22232B00309F
:10056E0083165202031DBD2A1D3051020318C62ADE
:10057E000A308312E9000030EA006A21232B003092
:10058E0083165202031DCD2A203051020318D62A9B
:10059E001E308312E9000030EA006A21232B00305E
:1005AE0083165202031DDD2A233051020318E62A58
:1005BE0032308312E9000030EA006A21232B00302A
:1005CE0083165202031DED2A263051020318F62A15
:1005DE0046308312E9000030EA006A21232B0030F6
:1005EE0083165202031DFD2A293051020318062BD1
:1005FE005A308312E9000030EA006A21232B0030C2
:10060E0083165202031D0D2B323051020318162B86
:10061E0064308312E9000030EA006A21232B831232
:10062E006430E9000030EA0001308316DE000C3041
:0A063E00DF004F30E0003A22080010
:100648008312031369088316DE0083126A0883166F
:10065800DF00B130E000D0210230DE000130DF00E1
:100668002730E0003A2200306A02031D3D2B643037
:10067800690203185B2BB1308316DE0080217008F5
:10068800E0000230DE000830DF003A220230831634
:10069800DE000A30DF003330E0003A2202308316F1
:1006A800DE000B30DF003130E0003A226E2BB13033
:1006B8008316DE0080217008E0000230DE0008307A
:1006C800DF003A2202308316DE000B30DF002F30C5
:1006D800E0003A2200306A06031D742B00306906D8
:1006E800031D7F2B02308316DE000D30DF003F3004
:1006F800E0003A22BA2B00306A02031D852B213014
:1007080069020318902B02308316DE000D30DF00DB
:100718005D30E0003A22BA2B00306A02031D962BA6
:10072800423069020318A12B02308316DE000D3017
:10073800DF005830E0003A22BA2B6A08003C031D5B
:10074800A72B6908633C031CB22B02308316DE001A
:100758000D30DF005330E0003A22BA2B0230831606
:0E076800DE000D30DF006230E0003A220800B3
:1007760083160313DE01AC217008D1007108D20084
:100786000530F4000030F5002F2070088316D100E4
:100796007108D2000A30F4000030F500B12070086C
:1007A6008316D1007108D20000307102031DDD2BC3
:1007B600203070020318FE2BD101D201DE01DF01C9
:1007C600C130E000D0210130DE000730DF003930D3
:1007D600E0003A2201308316DE000C30DF003530AF
:1007E600E0003A2202308316DE000930DF002430B2
:1007F600E0003A222E2C01308316DE000C30DF009A
:100806002030E0003A22203083165102F0000030FA
:10081600031C013E5202F1007008D1007108D2009B
:100826000530F4000030F5002F2070088316D10043
:100836007108D2000930F4000030F500B1207008CC
:100846008316D1007108D2007008DE007108DF003F
:08085600C130E000D0210800D0
:10085E0083160313881108110812881208138813BF
:10086E0083128811081188130813881208121B208E
:10087E001B201B20881608168815152088111B2092
:10088E008815152088111B208815152088111B200E
:10089E0008128815152088111B208815152088111F
:1008AE00881288178815152088111B2088130816A2
:1008BE0088151520881108128815152088111B20FF
:1008CE0088151520881108168815152088111B20EB
:1008DE00081288151520881188170817881608160B
:0C08EE008815152088111B206F140800CD
:1008FA00831603135B08003A031DA02C5A08003A1A
:10090A00031D8A2C3130F000E12C5A08013A031DEC
:10091A00912C3430F000E12C5A08023A031D982C2D
:10092A003730F000E12C5A08033A031D9F2C2A3075
:10093A00F000E12CE12C5B08013A031DC12C5A0896
:10094A00003A031DAB2C3230F000E12C5A08013A70
:10095A00031DB22C3530F000E12C5A08023A031D6F
:10096A00B92C3830F000E12C5A08033A031DC02C88
:10097A003030F000E12CE12C5B08023A031DE12C37
:10098A005A08003A031DCC2C3330F000E12C5A08E7
:10099A00013A031DD32C3630F000E12C5A08023AF2
:1009AA00031DDA2C3930F000E12C5A08033A031DF2
:0A09BA00E12C2330F000E12C0800CE
:0E09C400831203136D088A006C08820008007D
:0C09D200831203139501171297120800FE
:1009DE00FF3083160313D300FF30D400FF30D50051
:1009EE00FF3083129F01C0309F0483161F179F177D
:0609FE0083121F14080023
:100A0400831203136E08013A031D122D013083165D
:100A1400DE000130DF00A030E0003A2224231E2D46
:100A240001308316DE001030DF006730E0003A2228
:0A0A3400BB23822224239F22080026
:100A3E0083120313EB0104306B020318602D6B0855
:100A4E00003A031D2D2D01308600412D6B08013A11
:100A5E00031D342D02308600412D6B08023A031D12
:100A6E003B2D04308600412D6B08033A031D412DAA
:100A7E0008308600061E492D6B088316DA00DB014E
:100A8E007D24602D8312861E532D6B088316DA008B
:100A9E000130DB007D24602D8312061F5D2D6B0857
:100AAE008316DA000230DB007D24602D8312EB0A00
:040ABE00222D0800DD
:100AC200A02D013083120313F0000030F100022E3A
:100AD2000230F0000030F100022E0330F00000304E
:100AE200F100022E0430F0000030F100022E053039
:100AF200F0000030F100022E0630F0000030F1006C
:100B0200022E0730F0000030F100022E0830F00013
:100B12000030F100022E0930F0000030F100022E08
:100B22000A30F0000030F100022E0B30F0000030ED
:100B3200F100022E0C30F0000030F100022E0313FF
:100B4200003083165906031DA82D313058060319AB
:100B5200622D00305906031DB02D3230580603199C
:100B6200692D00305906031DB82D3330580603197C
:100B72006E2D00305906031DC02D3430580603195E
:100B8200732D00305906031DC82D35305806031940
:100B9200782D00305906031DD02D36305806031922
:100BA2007D2D00305906031DD82D37305806031904
:100BB200822D00305906031DE02D383058060319E6
:100BC200872D00305906031DE82D393058060319C8
:100BD2008C2D00305906031DF02D303058060319B4
:100BE200912D00305906031DF82D2A30580603199D
:100BF200962D00305906031D002E23305806031986
:040C02009B2D08001E
:100C0600E2248A110A128000840AEC0A0319ED0A0A
:080C1600F003031D032E08008A
:100C1E002F24EF24F030831686008312860183166C
:100C2E000710831212109210C73083169200E92417
:020C3E000800AC
:100C40006F2E0A3083120313E9000030EA006A2194
:100C5000D12E83121430E9000030EA006A21D12E2F
:100C600083121E30E9000030EA006A21D12E83127F
:100C70002830E9000030EA006A21D12E8312323098
:100C8000E9000030EA006A21D12E83123C30E900ED
:100C90000030EA006A21D12E83124630E90000308C
:100CA000EA006A21D12E83125030E9000030EA00B8
:100CB0006A21D12E83125A30E9000030EA006A21FD
:100CC000D12E83126430E9000030EA006A21D12E6F
:100CD00083120130EE00D12E8312EE01D12E0313C8
:100CE000003083165906031D772E0130580603196C
:100CF000212E00305906031D7F2E0230580603199D
:100D0000292E00305906031D872E0330580603197B
:100D1000302E00305906031D8F2E0430580603195B
:100D2000372E00305906031D972E0530580603193B
:100D30003E2E00305906031D9F2E0630580603191B
:100D4000452E00305906031DA72E073058060319FB
:100D50004C2E00305906031DAF2E083058060319DB
:100D6000532E00305906031DB72E093058060319BB
:100D70005A2E00305906031DBF2E0A30580603199B
:100D8000612E00305906031DC72E0B30580603197B
:100D9000682E00305906031DCF2E0C30580603195B
:040DA0006C2E0800AD
:100DA40058270F261F258312031370088316D800B3
:100DB400D90161258312031370088316D8007108C2
:100DC400D900202683120313700886000330FB0029
:100DD4008A30FC005530FD00FD0BEE2EFC0BEE2E90
:0E0DE400FB0BEE2E000000000225D42EF82E90
:100EB00020308400493083120313F000FE30EC0030
:100EC0000630ED000326A030840011308312031396
:0E0ED000F0004730EC000730ED00032608006C
:080DFC002034203420340034BF
:060E04002034203400340C
:100E0A00533470346534653464343A3420340034ED
:040E1A002534003447
:040E1E002534003443
:040E22002034003444
:080E260028342D342934003476
:0C0E2E00203420342034433420340034BD
:0A0E3A004F344634463420340034AF
:040E440043340034FF
:0E0E4800543465346D3470343A342034003440
:040E56002034003410
:080E5A0028342134293400344E
:0A0E62004834493447344834003462
:0A0E6C004D3449344434203400347E
:0A0E76004C344F345734203400345C
:0A0E80004D3441345834203400345E
:040E8A0041340034BB
:100E8E0020342034203420342034203420342034B4
:100E9E0020342034203420342034203420344D3477
:020EAE0000340E
:02400E004A2F37
:00000001FF
