:02000000422B91
:0C000600000000000000000000000800E6
:0E001200533083120313FD00FD0B0D28080070
:10002000243083120313FC00B530FD00FD0B1628AD
:0A003000FC0B162800000000080079
:10003A0083120313CA1B23288813242888174A1BF0
:10004A002828081329280817CA1A2D2888122E28A2
:10005A0088164A1A32280812332808163B183728F5
:10006A00061538280611861503208611CA193F2855
:10007A008813402888174A1944280813452808175E
:10008A00CA18492888124A2888164A184E28081277
:10009A004F2808163B1853280615542806118615AA
:1000AA00032086113B1C5B2810205C2809200800CD
:1000BA0083120313F801F9011030FC00710DF80DD9
:1000CA00F90D7408F8027508031C750FF902031874
:1000DA0075287408F80775080318750FF9070310CF
:0A00EA00F00DF10DFC0B6328080077
:1000F40083120313C80105304802031888284808EE
:100104004707840020308000C80A7D284808470734
:1001140084008001C80348084707C9000A30F40076
:10012400F5014508F0004608F1005D207808F0006C
:100134007908F1003030F007490884007008800025
:100144000A30F400F5014508F0004608F1005D208E
:100154007008C5007108C60000307106031DB4287C
:1001640000307006031DB728B928C8038D2808007D
:10017400243083120313FD00FD0BBE280000080089
:10018400831203133B104508CA001D203B140800CA
:1001940083120313FB01FA01F9018030F800F10C1A
:1001A400F00C031CDE287408F90775080318750F92
:1001B400FA070318FB0A0310F01FE6287408FA076D
:1001C40075080318750FFB07FB0CFA0CF90CF80CF7
:1001D400031CD1287B08F3007A08F2007908F100A7
:0601E4007808F00008009D
:1001EA00831603138611061108128812081388133E
:1001FA008312861106118813081388120812102018
:10020A001020102088160816861503208611102043
:10021A0086150320861110208615032086111020CA
:10022A0008128615032086111020861503208611D0
:10023A00881288178615032086111020881308163D
:10024A0086150320861108128615032086111020B0
:10025A00861503208611081686150320861110209C
:10026A00081286150320861188170817881608169B
:0C027A0086150320861110203B1408009C
:0C02860083120313950117129712080051
:0E029200831603130715F0308312970508003A
:1002A00083120313C101C2013C08C3003D08C4000E
:1002B00080303D06F00080307002031D612900305F
:1002C0003C0203186F290130C1000030C2003C0815
:1002D000003CC3003D08031C013EC401C4024308A6
:1002E000C5004408C6003E08C7007A200630BF009B
:1002F0000030C0004008003C031D80293F08003C3E
:1003000003189B293F083E07F20001303F02F0002E
:100310000030031C013E4002F10070083E078400DB
:100320000008F00072088400700880000130BF02ED
:10033000031CC0037A293E08840020308000410855
:1003400042040319B929BF01C0013F083E078400D8
:100350000008203A031DB029BF0A0319C00AA529C5
:100360000130BF02031CC0033F083E0784002D304C
:040370008000080001
:10037400831203139F01C0309F042909F000700801
:1003840083169F051F179F1783123C08F000F00D7A
:100394007010F00D7010F00D701070089F041F1491
:1003A400BA201F151F1DD8290000D4291F101E08AC
:1003B400F100F00183161E08F0040030F104080077
:1003C400FF3083120313B600FF30B700FF30B800CC
:1003D400FF309F01C0309F042909F0007008831684
:0C03E4009F051F179F1783121F140800AD
:1003F0000A2A803083120313BC001D2AC030BC00BF
:100400001D2A9430BC001D2AD430BC001D2A803027
:10041000BC001D2A831203133C08013A0319F92971
:100420003C08023A0319FE293C08033A0319012A41
:100430003C08043A0319042A072A3D03F0003C084B
:10044000F0077008BC007008CA001D203B10BF01F7
:100450003F083E07840000080319362A3F083E077C
:1004600084000008C500C220BF0A282A3B140800E7
:1004700083120313BD01BE013C08F2003C08F300E7
:10048000720884000008203A031D4B2A3D083E04F0
:10049000031D4B2A582A0130BD000030BE007208EF
:1004A00084000008F0007308840070088000F30ADC
:1004B0007208F100F20A710884000008003A031D76
:0804C000402A3C08F00008008E
:1004C800831603130711831212150C3097040800C2
:0E04D800831203133A088A00390882000800D4
:1004E600831603131208013EF000F1010318F10A06
:1004F60083123C08F400F501CA200630F2007008A9
:10050600F4007108F500720803198E2AF50CF40C34
:10051600F513FF3E872A0430F1007408F0007108D5
:100526000319992AF00D7010FF3E932A303070059A
:10053600F3007408F0007508F100F10CF00CF113EB
:10054600F10CF00CF113700895000F309705730845
:0405560097040800FE
:10055A00013083120313BC000130BD002230BE00FB
:10056A00F8214130FC00EE30FD00FD0BBA2AFC0BED
:10057A00BA2A00002A30BC0038227008BE000130B6
:10058A00BC000730BD00F8210130BC000A30BD00B4
:10059A002030BE00F8214130FC00EE30FD00FD0B9A
:0A05AA00D42AFC0BD42A000008003C
:1005B400831203133508003C031DE22A34081E3C51
:1005C4000318EA2A861464226430BC007322EC2ADD
:0605D40086104921080019
:1005DA0083120313BC01BA2170088312B400710894
:1005EA00B5000530F4000030F500CA207008B400E8
:1005FA007108B5000A30F4000030F5005D2070087B
:10060A00B4007108B5002030F002031CF103700831
:10061A00B4007108B5000530F4000030F500CA20B6
:10062A007008B4007108B5000930F4000030F50014
:10063A005D207008B4007108B5007008BC0071082C
:0A064A00BD002A30BE005021080058
:10065400F520E22183168610831212109210C730FF
:080664008316920043210800F7
:10066C006C228A110A128000840AB90A0319BA0A88
:08067C00F003031D362B0800FA
:0E06840058232A23ED22AD22DA22442B482BE4
:1006B000203084000A3083120313F0004E30B9005A
:0806C0000330BA0036230800E4
:04069C0043340034AF
:0E06A000543465346D3470343A3420340034F0
:0206AE000F3407
:02400E004A2F37
:00000001FF
