:02000000982D39
:0C000600000000000000000000000800E6
:10001200243083120313FC00B530FD00FD0B0F28C2
:0A002200FC0B0F280000000008008E
:0E002C00533083120313FD00FD0B1A28080049
:10003A0083120313FB01FA01F9018030F800F10C75
:10004A00F00C031C31287408F90775080318750F9A
:10005A00FA070318FB0A0310F01F39287408FA0775
:10006A0075080318750FFB07FB0CFA0CF90CF80C52
:10007A00031C24287B08F3007A08F2007908F100AF
:06008A007808F0000800F8
:1000900083120313F801F9011030FC00710DF80D03
:1000A000F90D7408F8027508031C750FF90203189E
:1000B00060287408F80775080318750FF90703100E
:0A00C000F00DF10DFC0B4E280800B6
:1000CA0083160313E91B6C28831287136E28831285
:1000DA0087178316691B74288312071376288312DD
:1000EA0007178316E91A7C28831287127E2883123F
:1000FA0087168316691A84288312071286288312A0
:10010A000716831640188C28831206158E28831228
:10011A0006118615032086118316E919972883127A
:10012A008713992883128717831669199F288312C0
:10013A000713A128831207178316E918A728831221
:10014A008712A9288312871683166918AF28831283
:10015A000712B1288312071683164018B72883128C
:10016A000615B928831206118615032086118316EF
:0C017A00401CC1280920C22816200800E3
:1001860083160313E701053067020318D1286708B1
:100196006607840020308000E70AC62867086607DD
:1001A60084008001E70367086607E8000A30F40068
:1001B600F5016408F0006508F10048207808F000B1
:1001C6007908F1003030F00783166808840070085B
:1001D60080000A30F400F5016408F0006508F100BB
:1001E600482070088316E4007108E50000307106A7
:1001F600031DFF2800307006031D02290429E703AA
:04020600D6280800EE
:10020A00103083120313FD00FD0B092900000800BA
:10021A00831603130711831212150C309704080072
:10022A00831603131208013EF000F1010318F10AC4
:10023A006408F400F5011D200630F2007008F4008D
:10024A007108F500720803192F29F50CF40CF5133F
:10025A00FF3E28290430F1007408F00071080319E0
:10026A003A29F00D7010FF3E342930307005F30042
:10027A007408F0007508F100F10CF00CF113F10CA0
:10028A00F00CF113700895000F3097057308970466
:02029A0008005A
:10029C008316031340106408E9006520831640148C
:0202AC00080048
:0E02AE00831603130715F0308312970508001E
:1002BC00243083120313FD00FD0B6229000008009B
:1002CC0083160313E401E601E7011030E800043063
:1002DC00670203189B29F030831288008030F000ED
:1002EC007008083E840083166809F00070088000CE
:1002FC00032003200F3083120805F00070088316CA
:10030C00E5007008031995296608E40065080319CF
:10031C009329E50CE513E40A8C290430E700E80D79
:10032C0068100430E607E70A6D296408F00008003D
:10033C0083160313E001E1015B08E2005C08E300B3
:10034C0080305C06F00080307002031DAF29003055
:10035C005B020318BD290130E0000030E1005B08AE
:10036C00003CE2005C08031C013EE301E30262086E
:10037C00E4006308E5005D08E600C3200630DE00FB
:10038C000030DF005F08003C031DCE295E08003CF6
:10039C000318E9295E085D07F20001305E02F000E7
:1003AC000030031C013E5F02F10070085D07840001
:1003BC000008F00072088400700880000130DE0232
:1003CC00031CDF03C8295D0884002030800060080E
:1003DC0061040319072ADE01DF015E085D07840052
:1003EC000008203A031DFE29DE0A0319DF0AF3294F
:1003FC000130DE02031CDF035E085D0784002D3034
:04040C008000080064
:1004100066217008DB000F3083120805F000031915
:0E042000132A05210B2A83165B08F000080042
:10042E008312031386140D21FF30F000F1018316A1
:10043E002C08F4002D08F5001D206430F400003067
:0E044E00F500482070088316E4001521080010
:10045C00831203139F01C0309F046809F0007008D9
:10046C0083169F051F179F175B08F000F00D701087
:10047C00F00D7010F00D7010700883129F041F1493
:10048C005E211F151F1D4C2A0000482A1F101E0834
:10049C00F100F00183161E08F0040030F10408008E
:1004AC00682A803083160313DB007B2AC030DB0004
:1004BC007B2A9430DB007B2AD430DB007B2A803013
:1004CC00DB007B2A831603135B08013A0319572AB6
:1004DC005B08023A03195C2A5B08033A03195F2A8A
:1004EC005B08043A0319622A652A5C03F0005B0876
:1004FC00F0077008DB007008E900652083164010D7
:10050C00DE015E085D07840000080319952A5E0869
:10051C005D0784000008E4004E21DE0A872A40149F
:02052C000800C5
:10052E0083160313DC01DD015B08F2005B08F300A8
:10053E00720884000008203A031DAA2A5C085D0494
:10054E00031DAA2AB72A0130DC000030DD00720834
:10055E0084000008F0007308840070088000F30A1D
:10056E007208F100F20A710884000008003A031DB7
:08057E009F2A5B08F000080051
:0A05860083120313861057210800AA
:10059000013083160313DB000130DC005830DD002E
:1005A0005622C730DB0097227008DD000130DB00E7
:1005B0000730DC0056220130DB000A30DC006630F8
:0605C000DD0056220800D8
:1005C60083160313DB012E227008C4007108C500D0
:1005D6000530F4000030F5001D2070088316C400B5
:1005E6007108C5000A30F4000030F5004820700894
:1005F6008316C4007108C50000307102031D052B67
:10060600203070020318242BC401C501DB01DC0174
:10061600C730DD009E210130DB000730DC00A23050
:10062600DD0056220130DB000C30DC006930DD00D5
:1006360056220230DB000930DC006330DD00562232
:10064600522B0130DB000C30DC005F30DD0056221F
:1006560020304402F0000030031C013E4502F10048
:100666007008C4007108C5000530F4000030F500BC
:100676001D2070088316C4007108C5000930F400F7
:100686000030F500482070088316C4007108C500C4
:100696007008DB007108DC00C730DD009E21080011
:1006A6000030831603134502031D5B2B1A304402E8
:1006B6000318682BAC01AD010230DB000930DC0009
:1006C600A030DD005622C322CE2B00308316450211
:1006D600031D6F2B1D3044020318772B0A30AC0024
:1006E6000030AD001722CE2B003083164502031DC5
:1006F6007E2B203044020318862B1E30AC000030BF
:10070600AD001722CE2B003083164502031D8D2B1C
:10071600233044020318952B3230AC000030AD0074
:100726001722CE2B003083164502031D9C2B263044
:1007360044020318A42B4630AC000030AD0017224B
:10074600CE2B003083164502031DAB2B2930440205
:100756000318B32B5A30AC000030AD001722CE2B55
:10076600003083164502031DBA2B323044020318AB
:10077600C22B6430AC000030AD001722CE2B6430A3
:100786008316AC000030AD000130DB000C30DC001D
:08079600A830DD005622080026
:10079E00831603132C08DB002D08DC00B030DD00BF
:1007AE009E210230DB000130DC005030DD0056228D
:1007BE0000302D02031DE52B64302C020318002C93
:1007CE00B030DB0097227008DD000230DB0008300D
:1007DE00DC0056220230DB000A30DC004E30DD0039
:1007EE0056220230DB000B30DC004C30DD0056228E
:1007FE00112CB030DB0097227008DD000230DB00D8
:10080E000830DC0056220230DB000B30DC004A30B0
:10081E00DD00562200302D06031D172C00302C064D
:10082E00031D212C0230DB000D30DC002A30DD00F0
:10083E005622582C00302D02031D272C21302C025D
:10084E000318312C0230DB000D30DC002530DD00CA
:10085E005622582C00302D02031D372C42302C020C
:10086E000318412C0230DB000D30DC002030DD009F
:10087E005622582C2D08003C031D472C2C08633C97
:10088E00031C512C0230DB000D30DC002F30DD005C
:10089E005622582C0230DB000D30DC004530DD00D6
:0408AE0056220800C6
:1008B20083160313C60108227008C6007008003AA6
:1008C2000319E12CB02C0A30AC000030AD00172225
:1008D200E12C14308316AC000030AD001722E12C5D
:1008E2001E308316AC000030AD001722E12C2830F8
:1008F2008316AC000030AD001722E12C3230831693
:10090200AC000030AD001722E12C3C308316AC0065
:100912000030AD001722E12C46308316AC000030C7
:10092200AD001722E12C50308316AC000030AD0030
:100932001722E12C5A308316AC000030AD0017228A
:10094200E12C83120130EF00E12C64308316AC00FD
:100952000030AD001722E12C8312EF01E12C831647
:100962004608013A0319642C4608023A03196A2C14
:100972004608033A0319712C4608053A0319782CE4
:100982004608063A03197F2C4608073A0319862CB3
:100992004608093A03198D2C46080A3A0319942C81
:1009A20046080B3A03199B2C46080D3A0319A22C50
:1009B20046080E3A0319A62C46080F3A0319AD2C25
:0209C20008002B
:0C09C4008312031395011712971208000C
:1009D000803083120313F0007008083E8400FF305B
:0409E000800008008B
:0E09E400831603132F088A002E0882000800D5
:1009F2008316031386110611071287120713871332
:100A02008312861106118713071387120712092012
:100A1200092009208716071686150320861109204A
:100A220086150320861109208615032086110920C8
:100A320007128615032086110920861503208611C8
:100A42008712871786150320861109208713071638
:100A520086150320861107128615032086110920A8
:100A62008615032086110716861503208611092094
:100A72000712861503208611871707178716071690
:0E0A82008615032086110920831640140800F3
:100A9000FF3083160313C100FF30C200FF30C300D4
:100AA000FF3083129F01C0309F046809F000700876
:0E0AB00083169F051F179F1783121F1408003F
:100ABE00F9244825E824FF30831688008610831217
:0E0ACE0012109210C73083169200E224080026
:100ADC00831203136F08013A031D7F2D0130831617
:100AEC00DB000130DC003430DD0056225924CF23EA
:100AFC008B2D83160130DB001030DC006D30DD00F7
:0C0B0C005622E322C822CF235323080006
:100B1800F2248A110A128000840AAE0A0319AF0A65
:080B2800F003031D8C2D0800F1
:0C0B3000FE255F2559246E259A2D9D2D71
:100BFC00203084004F3083120313F000A33083168F
:100C0C00AE000530AF008C25A03084000C30F00015
:0E0C1C00F2308316AE000530AF008C250800C4
:0A0B46004D344934443420340034A7
:0A0B50004C344F3457342034003485
:0A0B5A004F34463446342034003492
:0A0B64004834493447344834003463
:100B6E0020342034203420342034203420342034D7
:100B7E0020342034203420342034203420344D349A
:020B8E00003431
:0A0B90004D34413458342034003451
:040B9A0025340034CA
:040B9E0025340034C6
:040BA20020340034C7
:100BA600533470346534653464343A342034003454
:0E0BB600543465346D3470343A3420340034D5
:080BC4002034203420340034F9
:060BCC0020342034003447
:040BD2004334003474
:020BD6000F34DA
:080BD80028342D3429340034C7
:040BE0004134003468
:040BE4002034003485
:0C0BE80020342034203443342034003406
:080BF4002834213429340034B7
:02400E004A2F37
:00000001FF
