:02000000EC2DE5
:0C000600000000000000000000000800E6
:0E001200533083120313FD00FD0B0D28080070
:10002000243083120313FC00B530FD00FD0B1628AD
:0A003000FC0B162800000000080079
:10003A0083120317D61B24280313871326280313B6
:10004A0087170317561B2C28031307132E2803138D
:10005A0007170317D61A34280313871236280313EF
:10006A0087160317561A3C28031307123E28031350
:10007A00071603174418432806154428061186153F
:10008A0003208611D6194C28031387134E2803130D
:10009A0087170317561954280313071356280313EF
:1000AA0007170317D6185C28031387125E28031351
:1000BA0087160317561864280313071266280313B2
:1000CA000716031744186B2806156C28061186159F
:1000DA0003208611441C7328102074280920080064
:1000EA0083120313FB01FA01F9018030F800F10CC5
:1000FA00F00C031C89287408F90775080318750F92
:10010A00FA070318FB0A0310F01F91287408FA076C
:10011A0075080318750FFB07FB0CFA0CF90CF80CA1
:10012A00031C7C287B08F3007A08F2007908F100A6
:06013A007808F000080047
:1001400083120313F801F9011030FC00710DF80D52
:10015000F90D7408F8027508031C750FF9020318ED
:10016000B8287408F80775080318750FF907031005
:0A017000F00DF10DFC0BA6280800AD
:10017A0083120317D401053054020318CB285408FC
:10018A005307840020308000D40AC028540853073B
:10019A0084008001D40354085307D5000A30F400C0
:1001AA00F5015108F0005208F100A0207808F0008B
:1001BA007908F1003030F0070317550884007008F9
:1001CA0080000A30F400F5015108F0005208F100ED
:1001DA00A02070080317D1007108D2000030710600
:1001EA00031DF92800307006031DFC28FE28D403DD
:0401FA00D028080001
:1001FE00103083120313FD00FD0B032900000800CD
:10020E00243083120313FD00FD0B0B2900000800A0
:0E021E00831603130715F030831297050800AE
:10022C00831603130711831212150C309704080060
:10023C00831603131208013EF000F1010318F10AB2
:10024C00831203175108F400F50175200630F200F3
:10025C007008F4007108F500720803193A29F50CBE
:10026C00F40CF513FF3E33290430F1007408F00050
:10027C00710803194529F00D7010FF3E3F293030ED
:10028C007005F3007408F0007508F100F10CF00C27
:10029C00F113F10CF00CF113700895000F30970569
:0602AC007308970408002E
:1002B20083120317D101D301D4011030D5000430C9
:1002C200540203188E29F030031388008030F000A6
:1002D2007008083E840003175509F000700880007A
:1002E200032003200F3003130805F00070080317E2
:1002F200D2007008031988295308D1005208031943
:100302008629D20CD213D10A7F290430D400D50D0C
:1003120055100430D307D40A60295108F0000800B0
:100322008312031744105108D6001D2003174414EA
:020332000800C1
:1003340083120317CD01CE014808CF004908D0002D
:1003440080304906F00080307002031DAB29003074
:1003540048020318B9290130CD000030CE00480806
:10036400003CCF004908031C013ED001D0024F08D5
:10037400D1005008D2004A08D300BD200630CB007B
:100384000030CC004C08003C031DCA294B08003C3B
:100394000318E5294B084A07F20001304B02F0002C
:1003A4000030031C013E4C02F10070084A0784002F
:1003B4000008F00072088400700880000130CB024D
:1003C400031CCC03C4294A088400203080004D0853
:1003D4004E040319032ACB01CC014B084A078400BD
:1003E4000008203A031DFA29CB0A0319CC0AEF2985
:1003F4000130CB02031CCC034B084A0784002D3088
:04040400800008006C
:0E0408008312031741088A0040088200080092
:100416008316031386110611071287120713871313
:1004260083128611061187130713871207121020ED
:100436001020102087160716861503208611102017
:10044600861503208611102086150320861110209C
:1004560007128615032086111020861503208611A3
:100466008712871786150320861110208713071613
:100476008615032086110712861503208611102083
:10048600861503208611071686150320861110206F
:100496000712861503208611871707178716071672
:0E04A600861503208611102003174414080049
:0C04B40083120313950117129712080021
:0A04C0008312031386100F210800B9
:1004CA0083120317C901CA014808F2004808F30059
:1004DA00720884000008203A031D782A49084A0451
:1004EA00031D782A852A0130C9000030CA00720823
:1004FA0084000008F0007308840070088000F30A82
:10050A007208F100F20A710884000008003A031D1B
:08051A006D2A4808F0000800FA
:10052200831203139F01C0309F046F09F00070080B
:1005320083169F051F179F17831203174808F000A1
:10054200F00D7010F00D7010F00D701070080313A4
:100552009F041F1407211F151F1DB12A0000AD2A79
:100562001F101E08F100F00183161E08F00400306F
:04057200F104080088
:100576008312031386141621FF30F000F10183164F
:100586006E08F4006F08F50075206430F400003042
:0E059600F500A02070080317D1001E210800F8
:1005A400FF3083120317C500FF30C600FF30C700B9
:1005B400FF3003139F01C0309F046F09F0007008DF
:0E05C40083169F051F179F1783121F14080030
:1005D200FB2A803083120317C8000E2BC030C800DC
:1005E2000E2B9430C8000E2BD430C8000E2B803056
:1005F200C8000E2B831203174808013A0319EA2A8E
:100602004808023A0319EF2A4808033A0319F22A62
:100612004808043A0319F52AF82A4903F000480861
:10062200F0077008C8007008D6001D200317441098
:10063200CB014B084A07840000080319282B4B08FA
:100642004A0784000008D1009121CB0A1A2B4414D6
:0206520008009E
:10065400803083120313F0007008083E8400FF30DA
:04066400800008000A
:1006680059217008C8000F3003130805F00003195A
:0E0678003F2BFF20372B03174808F000080027
:10068600013083120317C8000130C900A030CA0028
:10069600E9220230C8000130C9002030CA00E92230
:1006A6009E0116301E020318672B1830D6001D2037
:1006B6004130FC00EE30FD00FD0B5F2BFC0B5F2B89
:1006C600000003179E0A542B0130D6001D20080097
:1006D60083120317C8019122700883120317C20000
:1006E6007108C3000530F4000030F500752070086D
:1006F6000317C2007108C3000A30F4000030F50089
:10070600A02070080317C2007108C30000307102F0
:10071600031D8F2B203070020318AE2BC201C301BC
:10072600C801C9013030CA009A210130C80007301B
:10073600C9005030CA00E9220130C8000C30C90097
:100746005A30CA00E9220230C8000930C9005E30BA
:10075600CA00E922DC2B0130C8000C30C900563033
:10076600CA00E92220304202F0000030031C013E9C
:100776004302F1007008C2007108C3000530F4009E
:100786000030F500752070080317C2007108C30019
:100796000930F4000030F500A02070080317C200ED
:1007A6007108C3007008C8007108C9003030CA005B
:0407B6009A2108007C
:1007BA0083160313ED013423700883160313ED0027
:1007CA007008003A03196B2C392C0A30EE000030FD
:1007DA00EF00BB226B2C14308316EE000030EF00C2
:1007EA00BB226B2C1E308316EE000030EF00BB22BA
:1007FA006B2C28308316EE000030EF00BB226B2CE6
:10080A0032308316EE000030EF00BB226B2C3C30F6
:10081A008316EE000030EF00BB226B2C46308316A5
:10082A00EE000030EF00BB226B2C50308316EE0036
:10083A000030EF00BB226B2C5A308316EE000030DA
:10084A00EF00BB226B2C8312013003179F006B2C25
:10085A00643083160313EE000030EF00BB226B2CCA
:10086A00831203179F016B2C831603136D08013A39
:10087A000319EA2B6D08023A0319F02B6D08033AA3
:10088A000319F72B6D08053A0319FE2B6D08063A72
:10089A000319052C6D08073A03190C2C6D08093A3F
:1008AA000319132C6D080A3A03191A2C6D080B3A0E
:1008BA000319212C6D080D3A0319282C6D080E3ADC
:0E08CA0003192D2C6D080F3A0319352C080068
:1008D8000030831203174302031D742C1A3042029E
:1008E8000318852C83160313EE01EF0102308312DF
:1008F8000317C8000930C900E630CA00E92260229F
:100908000D2D003003174302031D8C2C1D304202AD
:100918000318962C0A3083160313EE000030EF00FC
:10092800BB220D2D003003174302031D9D2C2030E0
:1009380042020318A72C1E3083160313EE00003062
:10094800EF00BB220D2D003003174302031DAE2C10
:10095800233042020318B82C323083160313EE00FA
:100968000030EF00BB220D2D003003174302031D9A
:10097800BF2C263042020318C92C463083160313B5
:10098800EE000030EF00BB220D2D003003174302AC
:10099800031DD02C293042020318DA2C5A30831652
:1009A8000313EE000030EF00BB220D2D00300317BB
:1009B8004302031DE12C323042020318EB2C643051
:1009C80083160313EE000030EF00BB220D2D6022CA
:1009D80001300317D6001D2001300317C80001306D
:1009E800C9001030CA00E9220230C8000130C9002D
:1009F8006530CA00E9220830FB009D30FC00053054
:100A0800FD00FD0B052DFC0B052DFB0B052D000036
:040A180000000800D2
:100A1C00013083120317C8000130C900CC30CA0062
:100A2C00E9223030C80065227008CA000130C800C5
:100A3C000730C900E9220130C8000A30C900633010
:060A4C00CA00E9220800C7
:100A52000B22D2222A23FF308316880086108312AB
:0E0A620012109210C730831692005A2208001C
:100A7000831603136E0883120317C800831603132B
:100A80006F0883120317C9002030CA009A21023070
:100A9000C8000130C9004630CA00E9220030831680
:100AA00003136F02031D562D64306E020318732D5D
:100AB000203083120317C80065227008CA00023074
:100AC000C8000830C900E9220230C8000A30C90055
:100AD0004E30CA00E9220230C8000B30C900613034
:100AE000CA00E922862D831203172030C800652230
:100AF0007008CA000230C8000830C900E92202307C
:100B0000C8000B30C900DF30CA00E922003083166C
:100B100003136F06031D8E2D00306E06031D9A2DE4
:100B2000023083120317C8000D30C900E130CA003B
:100B3000E922DF2D0030831603136F02031DA22D5F
:100B400021306E020318AE2D023083120317C80045
:100B50000D30C900D530CA00E922DF2D00308316E0
:100B600003136F02031DB62D42306E020318C22D0F
:100B7000023083120317C8000D30C900DA30CA00F2
:100B8000E922DF2D831603136F08003C031DCA2DD5
:100B90006E08633C031CD62D023083120317C80075
:100BA0000D30C900E830CA00E922DF2D8312031797
:100BB0000230C8000D30C9001930CA00E92208000F
:100BC00004228A110A128000840AC00A0319C10A89
:080BD000F003031DE02D0800F5
:100BD800C02629254323DD23831203171F08013A62
:100BE800031D002E0130C8000130C900BB30CA0007
:100BF800E9223825DD230D2E013083120317C800A2
:100C08001030C900D330CA00E9226B230E253825DD
:060C18006C24EF2D0E2EEE
:100D8000203084003A3083120313F000143003172C
:100D9000C0000630C100E025A03084001B30F00008
:100DA0004E300317C0000630C100E0255A308400E1
:100DB0000B30F0008F300317C0000630C100E02573
:100DC000BB3084001130F0007E300317C0000630C5
:100DD000C100E025653084000A30F0009A30031726
:100DE000C0000630C100E025CC3084000730F000A0
:100DF000AD300317C0000630C100E0256F3084001D
:100E00000130F000BE300317C0000630C100E025FD
:100E1000D33084001530F00069300317C00006306D
:100E2000C100E0251030831784000930F000A430A1
:100E30000317C0000630C100E0258313E8308400AA
:100E40000530F000B4300317C0000630C100E025C3
:100E50001930831784000530F000B9300317C00043
:0A0E60000630C100E02583130800EE
:100C280044346134793472346934743420347C3413
:100C38002034473475346534763461347234723410
:100C4800613420347C34203452346F346434723448
:100C580069346734753465347A3420347C3420340C
:0C0C6800533475346C3469347434003437
:100C7400533470346534653464343A342034003485
:040C840020340034E4
:0C0C880020342034203443342034003465
:080C9400203420342034003428
:100C9C0043344F34433449344D34493443342D3484
:100CAC0045344B34313420345434453452344D347F
:100CBC00203432342034503452344F344A34453496
:060CCC00433454340034EF
:040CD2004134003475
:0A0CD6004C344F34573420340034FE
:0A0CE0004D3449344434203400340C
:040CEA002534003479
:0A0CEE004F344634463420340034FD
:040CF8002034003470
:100CFC002034203420342034203420342034203448
:100D0C0020342034203420342034203420344D340A
:020D1C000034A1
:080D1E0028342D34293400347F
:060D2600203420340034EB
:040D2C002534003436
:040D30004334003414
:100D3400463441344E342034533454344F345034D4
:040D44002134003422
:100D480054344F344F34203448344F3454342134DD
:020D5800003465
:0E0D5A00543465346D3470343A34203400342F
:0A0D6800483449344734483400345D
:0A0D72004D3441345834203400346D
:020D7C000F3432
:02400E004A2F37
:00000001FF
