:02000000A62C2C
:0C000600000000000000000000000800E6
:10001200243083120313FC00B530FD00FD0B0F28C2
:0A002200FC0B0F280000000008008E
:0E002C00533083120313FD00FD0B1A28080049
:10003A0083160313D41B24288312881326288312B9
:10004A0088178316541B2C28831208132E28831210
:10005A0008178316D41A3428831288123628831272
:10006A0088168316541A3C28831208123E288312D3
:10007A000816831630184428831206154628831258
:10008A0006118615032086118316D4194F28831268
:10009A0088135128831288178316541957288312F4
:1000AA0008135928831208178316D4185F28831255
:1000BA0088126128831288168316541867288312B7
:1000CA000812692883120816831630186F288312BB
:1000DA0006157128831206118615032086118316C8
:0C00EA00301C792809207A281620080014
:1000F60083120313FB01FA01F9018030F800F10CB9
:10010600F00C031C8F287408F90775080318750F7F
:10011600FA070318FB0A0310F01F97287408FA075A
:1001260075080318750FFB07FB0CFA0CF90CF80C95
:10013600031C82287B08F3007A08F2007908F10094
:060146007808F00008003B
:10014C0083120313F801F9011030FC00710DF80D46
:10015C00F90D7408F8027508031C750FF9020318E1
:10016C00BE287408F80775080318750FF9070310F3
:0A017C00F00DF10DFC0BAC2808009B
:10018600243083120313FD00FD0BC728000008006E
:100196008316031330104F08D4001D208316301425
:0201A60008004F
:1001A80083160313D201053052020318E2285208BD
:1001B8005107840020308000D20AD72852085107FE
:1001C80084008001D20352085107D3000A30F4009A
:1001D800F5014F08F0005008F100A6207808F0005B
:1001E8007908F1003030F00783165308840070084E
:1001F80080000A30F400F5014F08F0005008F100C3
:10020800A62070088316CF007108D0000030710650
:10021800031D102900307006031D13291529D20368
:04022800E7280800BB
:10022C00831603131208013EF000F1010318F10AC2
:10023C004F08F400F5017B200630F2007008F40042
:10024C007108F500720803193029F50CF40CF5133C
:10025C00FF3E29290430F1007408F00071080319DD
:10026C003B29F00D7010FF3E352930307005F3003E
:10027C007408F0007508F100F10CF00CF113F10C9E
:10028C00F00CF113700895000F3097057308970464
:02029C00080058
:10029E00831603130711831212150C3097040800EE
:0E02AE00831603130715F0308312970508001E
:0C02BC008312031395011712971208001B
:0E02C800831203136F088A006E08820008007C
:1002D60083160313CB01CC014608CD004708CE0098
:1002E60080304706F00080307002031D7C29003004
:1002F600460203188A290130CB000030CC0046089C
:10030600003CCD004708031C013ECE01CE024D083D
:10031600CF004E08D0004808D100D4200630C900CE
:100326000030CA004A08003C031D9B294908003CCE
:100336000318B62949084807F20001304902F000BF
:100346000030031C013E4A02F10070084807840091
:100356000008F00072088400700880000130C902AD
:10036600031CCA03952948088400203080004B08E6
:100376004C040319D429C901CA0149084807840055
:100386000008203A031DCB29C90A0319CA0AC02945
:100396000130C902031CCA034908480784002D30EE
:0403A60080000800CB
:1003AA00831203139F01C0309F044709F0007008AD
:1003BA0083169F051F179F174608F000F00D70104F
:1003CA00F00D7010F00D7010700883129F041F1446
:1003DA00C3201F151F1DF3290000EF291F101E0837
:1003EA00F100F00183161E08F0040030F104080041
:0A03FA008312031386105721080038
:100404008312031386144F21FF30F000F1016C08AE
:10041400F4006D08F5007B206430F4000030F50032
:0C042400A62070088316CF0016210800E7
:10043000FF3083160313B100FF30B200FF30B3006A
:10044000FF3083129F01C0309F044709F0007008FD
:0E04500083169F051F179F1783121F140800A5
:10045E0083160313C701C8014608F2004608F300CD
:10046E00720884000008203A031D422A47084804F7
:10047E00031D422A4F2A0130C7000030C8007208FF
:10048E0084000008F0007308840070088000F30AEE
:10049E007208F100F20A710884000008003A031D88
:0804AE00372A4608F00008009F
:1004B600831603138611061108128812081388136F
:1004C6008312861106118813081388120812092050
:1004D600092009208816081686150320861109208A
:1004E600861503208611092086150320861109200A
:1004F6000812861503208611092086150320861109
:100506008812881786150320861109208813081675
:1005160086150320861108128615032086110920E8
:1005260086150320861108168615032086110920D4
:1005360008128615032086118817081788160816CC
:0E054600861503208611092083163014080044
:10055400BC2A803083160313C600CF2AC030C600DD
:10056400CF2A9430C600CF2AD430C600CF2A803098
:10057400C600CF2A831603134608013A0319AB2A8F
:100584004608023A0319B02A4608033A0319B32A63
:100594004608043A0319B62AB92A4703F000460864
:1005A400F0077008C6007008D4001D2083163010B0
:1005B400C90149084807840000080319E92A4908C1
:1005C400480784000008CF00CB20C90ADB2A301476
:0205D40008001D
:1005D600831203136C088316C60083126D088316F4
:1005E600C700A030C8006B210230C6000130C7002A
:1005F6002430C800AA22003083126D02031D052B89
:1006060064306C020318212BA0308316C6002F22FB
:100616007008C8000230C6000830C700AA2202309F
:10062600C6000A30C7002230C800AA220230C6001F
:100636000B30C7002030C800AA22332B8316A03007
:10064600C6002F227008C8000230C6000830C70056
:10065600AA220230C6000B30C7003630C800AA22D4
:10066600003083126D06031D3A2B00306C06031D05
:10067600452B02308316C6000D30C7003130C80046
:10068600AA22832B003083126D02031D4C2B2130CE
:100696006C020318572B02308316C6000D30C700B4
:1006A6002C30C800AA22832B003083126D02031D52
:1006B6005E2B42306C020318692B02308316C6008B
:1006C6000D30C7003830C800AA22832B83126D086C
:1006D600003C031D702B6C08633C031C7B2B023013
:1006E6008316C6000D30C7004D30C800AA22832BE2
:1006F60083160230C6000D30C7004830C800AA2253
:020706000800E9
:10070800013083160313C6000130C7005230C800F9
:10071800AA22B430C6002F227008C8000130C600D3
:100728000730C700AA220130C6000A30C70045308A
:06073800C800AA2208001F
:10073E0083160313C601D5217008C4007108C500C5
:10074E000530F4000030F5007B2070088316C400DD
:10075E007108C5000A30F4000030F500A6207008BC
:10076E008316C4007108C50000307102031DC12B31
:10077E00203070020318CD2BC401C5010130C60014
:10078E000C30C7004130C800AA22FB2B0130C60036
:10079E000C30C7003D30C800AA2220304402F000C1
:1007AE000030031C013E4502F1007008C4007108C0
:1007BE00C5000530F4000030F5007B20700883166C
:1007CE00C4007108C5000930F4000030F500A62001
:1007DE0070088316C4007108C5007008C600710841
:0A07EE00C700B430C8006B210800FA
:1007F80064218A110A128000840AEE0A0319EF0A9A
:08080800F003031DFC2B0800A6
:100810005B22182283168610831212109210C730A2
:08082000831692005E2108001E
:100828000030831603134502031D1C2C1A304402A2
:100838000318232C8312EC01ED01FD21A52C0030B7
:1008480083164502031D2A2C1D3044020318332C3D
:100858000A308312EC000030ED000222A52C003093
:1008680083164502031D3A2C203044020318432CFA
:100878001E308312EC000030ED000222A52C00305F
:1008880083164502031D4A2C233044020318532CB7
:1008980032308312EC000030ED000222A52C00302B
:1008A80083164502031D5A2C263044020318632C74
:1008B80046308312EC000030ED000222A52C0030F7
:1008C80083164502031D6A2C293044020318732C31
:1008D8005A308312EC000030ED000222A52C0030C3
:1008E80083164502031D7A2C323044020318832CE8
:1008F80064308312EC000030ED000222A52CFD21AB
:1009080001308316D4001D2001308316C600013043
:10091800C7006330C800AA220230C6000130C700F1
:100928005930C800AA220830FB009D30FC00053071
:10093800FD00FD0B9D2CFC0B9D2CFB0B9D2C000042
:0409480000000800A3
:10094C00002508249F238423EB221424A82CAD2CEF
:100A0000203084004C3083120313F000B330EE002A
:080A10000430EF00FC23080094
:040966002534003400
:04096A002034003401
:10096E00533470346534653464343A34203400348E
:0A097E004C344F3457342034003459
:0A0988004F34463446342034003466
:0409920025340034D4
:0A0996004D34493444342034003459
:0809A00020342034203400341F
:0809A80028342D3429340034F9
:0409B0004334003498
:0209B4000F34FE
:0A09B6004D3441345834203400342D
:0A09C0004834493447344834003409
:0E09CA00543465346D3470343A3420340034C3
:1009D800463441344E342034533454344F34503434
:0409E8002134003482
:1009EC0054344F344F34203448344F34543421343D
:0209FC000034C5
:02400E004A2F37
:00000001FF
