:02000000772E59
:10000800FF00030E83018316DD000A08DC008A0165
:100018007B088312A2007C08A1007D08A0008B1336
:100028000B1CC128061A4E2801308316C500003063
:10003800C6000330FB008A30FC005530FD00FD0B84
:100048002328FC0B2328FB0B232800000000831225
:100058000618342801308316C1000030C2004E282B
:10006800831286183D2804308316C1000030C20070
:100078004E2883120619462807308316C10000301F
:10008800C2004E28831286194E280A308316C100F2
:100098000030C2008312861A872801308316C500F3
:1000A8000030C6000330FB008A30FC005530FD00EC
:1000B800FD0B5C28FC0B5C28FB0B5C280000000097
:1000C800831206186D2802308316C1000030C20062
:1000D800872883128618762805308316C1000030D9
:1000E800C2008728831206197F2808308316C100AA
:1000F8000030C20087288312861987280C3083169F
:10010800C1000030C2008312061BC02801308316CC
:10011800C5000030C6000330FB008A30FC005530B3
:10012800FD00FD0B9528FC0B9528FB0B952800007E
:10013800000083120618A62803308316C100003079
:10014800C200C02883128618AF2806308316C10063
:100158000030C200C02883120619B8280930831657
:10016800C1000030C200C02883128619C0280B3095
:100178008316C1000030C2000B108B1783122208AF
:10018800FB002108FC002008FD0083165C088A009B
:0A0198005D0E8300FF0E7F0E0900CC
:0E01A200533083120313FD00FD0BD528080017
:1001B000243083120313FC00B530FD00FD0BDE2854
:0A01C000FC0BDE2800000000080020
:0C01CA0000000000000000000000080021
:1001D60083120317901BF22803138813F4280313C2
:1001E60088170317101BFA2803130813FC28031398
:1001F60008170317901A02290313881204290313F8
:1002060088160317101A0A29031308120C29031358
:1002160008166F1810290815112908118815E520E8
:100226008811031790191A29031388131C2903131D
:1002360088170317101922290313081324290313F7
:100246000817031790182A29031388122C29031359
:1002560088160317101832290313081234290313BA
:1002660008166F1838290815392908118815E52048
:0E02760088116F1C4029D8204129D120080092
:1002840083120313FB01FA01F9018030F800F10C29
:10029400F00C031C56297408F90775080318750F28
:1002A400FA070318FB0A0310F01F5E297408FA0703
:1002B40075080318750FFB07FB0CFA0CF90CF80C06
:1002C400031C49297B08F3007A08F2007908F1003D
:0602D4007808F0000800AC
:1002DA0083120313F801F9011030FC00710DF80DB7
:1002EA00F90D7408F8027508031C750FF902031852
:1002FA0085297408F80775080318750FF90703109C
:0A030A00F00DF10DFC0B7329080043
:1003140083160313071583121211F0309705080092
:10032400243083120313FD00FD0B962900000800FE
:10033400831603131208013EF000F1010318F10AB9
:100344006B08F400F50142210630F2007008F40055
:100354007108F50072080319B429F50CF40CF513AF
:10036400FF3EAD290430F1007408F0007108031950
:10037400BF29F00D7010FF3EB92930307005F3002D
:100384007408F0007508F100F10CF00CF113F10C95
:10039400F00CF113700895000F309705730897045B
:0203A40008004F
:1003A600831603130711831212150C3097040800E5
:1003B600831203136F1083166B08831203179000C2
:0603C600EB206F1408009B
:1003CC0083160313EE0105306E020318F4296E0830
:1003DC006D07840020308000EE0AE9296E086D0755
:1003EC0084008001EE036E086D07EF000A30F40004
:1003FC00F5016B08F0006C08F1006D217808F00035
:10040C007908F1003030F00783166F08840070080B
:10041C0080000A30F400F5016B08F0006C08F10064
:10042C006D2170088316EB007108EC00003071062A
:10043C00031D222A00307006031D252A272AEE03ED
:04044C00F929080082
:1004500083160313E301E4016208F2006208F3006B
:10046000720884000008203A031D3B2A63086404D4
:10047000031D3B2A482A0130E3000030E4007208E3
:1004800084000008F0007308840070088000F30AFC
:100490007208F100F20A710884000008003A031D96
:0804A000302A6208F000080098
:1004A800831203130714D321FF30F000F1018316E0
:1004B8003F08F4004008F50042216430F4000030A1
:0E04C800F5006D2170088316EB009A210800E4
:0A04D6008312031307108A210800A7
:1004E000822A803083160313E200952AC030E2008E
:1004F000952A9430E200952AD430E200952A803083
:10050000E200952A831603136208013A0319712A3F
:100510006208023A0319762A6208033A0319792A13
:100520006208043A03197C2A7F2A6303F0006208F8
:10053000F0077008E2007008831203179000EB20A8
:100540006F108316E501650864078400000803192D
:10055000B22A6508640784000008EB00DB218316DB
:0A056000E50AA32A83126F140800B5
:10056A0083160313E701E8016208E9006308EA0059
:10057A0080306306F00080307002031DC62A003006
:10058A0062020318D42A0130E7000030E80062084A
:10059A00003CE9006308031C013EEA01EA0269081B
:1005AA00EB006A08EC006408ED00E6210630E5007D
:1005BA000030E6006608003C031DE52A6508003C99
:1005CA000318002B65086407F20001306502F00089
:1005DA000030031C013E6602F100700864078400C3
:1005EA000008F00072088400700880000130E502FB
:1005FA00031CE603DF2A64088400203080006708B1
:10060A00680403191E2BE501E601650864078400E6
:10061A000008203A031D152BE50A0319E60A0A2BDE
:10062A000130E502031CE6036508640784002D30E7
:04063A008000080034
:10063E00831203139F01C0309F0483161F179F1749
:10064E006208F000F00D7010F00D7010F00D7010CB
:10065E00700883129F041F1492211F151F1D392B22
:10066E000000352B1F101E08F100F00183161E0826
:08067E00F0040030F104080053
:100686000030831603134B02031D4B2B1A304A020C
:100696000318582BBF01C0010230E2000930E30005
:1006A6005330E40070226B22BE2B003083164B02BF
:1006B600031D5F2B1D304A020318672B0A30BF004B
:1006C6000030C0005422BE2B003083164B02031D9F
:1006D6006E2B20304A020318762B1E30BF000030E6
:1006E600C0005422BE2B003083164B02031D7D2B07
:1006F60023304A020318852B3230BF000030C00079
:100706005422BE2B003083164B02031D8C2B263041
:100716004A020318942B4630BF000030C000542212
:10072600BE2B003083164B02031D9B2B29304A0239
:100736000318A32B5A30BF000030C0005422BE2B32
:10074600003083164B02031DAA2B32304A020318CF
:10075600B22B6430BF000030C0005422BE2B643080
:100766008316BF000030C0000130E2000C30E30009
:080776004F30E400702208007E
:10077E0083160313E2011F237008CA007108CB0011
:10078E000530F4000030F500422170088316CA00CF
:10079E007108CB000A30F4000030F5006D217008AE
:1007AE008316CA007108CB0000307102031DE12BC5
:1007BE00203070020318022CCA01CB01E201E301C2
:1007CE00CC30E400B5220130E2000730E300A9305E
:1007DE00E400702201308316E2000C30E300A530F5
:1007EE00E400702202308316E2000930E30062302A
:1007FE00E4007022322C01308316E2000C30E3004C
:10080E005530E4007022203083164A02F00000308A
:10081E00031C013E4B02F1007008CA007108CB00A8
:10082E000530F4000030F500422170088316CA002E
:10083E007108CB000930F4000030F5006D2170080E
:10084E008316CA007108CB007008E2007108E3003D
:08085E00CC30E400B5220800D3
:100866000030831603134606031D3B2C0130450654
:10087600031DC12CC501C60100304206031D452CCF
:1008860001304106031D4C2C0A30BF000030C00069
:10089600C02C00304206031D522C02304106031DB7
:1008A600592C1430BF000030C000C02C0030420666
:1008B600031D5F2C03304106031D662C1E30BF004E
:1008C6000030C000C02C00304206031D6C2C0430E2
:1008D6004106031D732C2830BF000030C000C02C19
:1008E60000304206031D792C05304106031D802C7D
:1008F6003230BF000030C000C02C00304206031D5D
:10090600862C06304106031D8D2C3C30BF0000307E
:10091600C000C02C00304206031D932C0730410650
:10092600031D9A2C4630BF000030C000C02C00309A
:100936004206031DA02C08304106031DA72C50308B
:10094600BF000030C000C02C00304206031DAD2C95
:1009560009304106031DB42C5A30BF000030C000D8
:10096600C02C00304206031DBA2C0C304106031D74
:0E097600C02C6430BF000030C00054220800C6
:10098400013083160313E2000130E3005930E40020
:100994007022CC308316E20028227008E400013073
:1009A400E2000730E300702201308316E2000A30CF
:0A09B400E3006030E4007022080048
:1009BE00831603133F08E2004008E300AF30E40063
:1009CE00B5220230E2000130E3002330E400702251
:1009DE00003083164002031DF62C64303F020318CC
:1009EE00132DAF30E20028227008E4000230E2003E
:1009FE000830E300702202308316E2000A30E30072
:100A0E002B30E400702202308316E2000B30E3003C
:100A1E003430E4007022262DAF308316E2002822F7
:100A2E007008E4000230E2000830E3007022023069
:100A3E008316E2000B30E3003230E4007022003007
:100A4E0083164006031D2D2D00303F06031D372D46
:100A5E000230E2000D30E3002D30E4007022722DE2
:100A6E00003083164002031D3E2D21303F02031835
:100A7E00482D0230E2000D30E3004A30E4007022CF
:100A8E00722D003083164002031D4F2D42303F025F
:100A9E000318592D0230E2000D30E300A030E400BF
:100AAE007022722D83164008003C031D602D3F08F6
:100ABE00633C031C6A2D0230E2000D30E3006A3005
:100ACE00E4007022722D02308316E2000D30E30036
:080ADE006530E40070220800FD
:100AE600FF3083160313C700FF30C800FF30C9006C
:100AF600FF3083129F01C0309F0483161F179F1774
:060B060083121F14080019
:0E0B0C008316031344088A0043088200080081
:100B1A008316031388110811081288120813881300
:100B2A008312881108118813081388120812D82012
:100B3A00D820D820881608168815E5208811D820CC
:100B4A008815E5208811D8208815E5208811D82035
:100B5A0008128815E5208811D8208815E520881103
:100B6A00881288178815E5208811D8208813081656
:100B7A008815E520881108128815E5208811D820E3
:100B8A008815E520881108168815E5208811D820CF
:100B9A0008128815E520881188170817881608167C
:0C0BAA008815E5208811D8206F14080081
:0C0BB60083120313950117129712080018
:100BC200831203133608013A031DF22D01308316F6
:100BD200E2000130E3003930E4007022DF243324E4
:100BE200FF2D013083160313E2001030E30037308B
:0E0BF200E4007022BF23C224DF244323080046
:100C00008B170B178B150B14831603138113080016
:100C100083160313C101C201831206100730FC00C2
:100C20007D30FD00FD0B122EFC0B122E06148610DB
:100C30000730FC007D30FD00FD0B1C2EFC0B1C2E34
:100C4000861406110730FC007D30FD00FD0B262EBA
:100C5000FC0B262E061586110730FC007D30FD00AA
:0C0C6000FD0B302EFC0B302E861508001A
:100C6C0086258A110A128000840AC30A0319C40A51
:080C7C00F003031D362E0800F1
:100C84008D257325F0308316860088010F3083127A
:100C9400860083160710831212109210C730831631
:060CA4009200DB250800B0
:100CAA000030831603134606031D5D2E01304506E8
:100CBA00031D762E00304206031D652E0A304106BA
:100CCA00031D6B2E01308312B600762E0030831678
:100CDA004206031D722E0B304106031D762E831227
:040CEA00B601080047
:100CEE00E0264226002608265526E1257A2E7E2E5F
:100DC000233084004C3083120313F00084308316E8
:100DD000C3000630C4003626A03084000F30031351
:100DE000F000D0308316C3000630C4003626080059
:100D0800533470346534653464343A3420340034F0
:040D1800203400344F
:0A0D1C004F344634463420340034CE
:040D2600253400343C
:040D2A002534003438
:020D2E0000348F
:040D30004134003416
:100D3400203420342034203420342034203420340F
:100D440020342034203420342034203420344D34D2
:020D5400003469
:0A0D56004C344F345734203400347D
:080D6000283421342934003449
:040D680020340034FF
:080D6C0020342034203400344F
:0E0D7400543465346D3470343A342034003415
:040D820043340034C2
:060D86002034203400348B
:0A0D8C004D34413458342034003453
:0A0D9600483449344734483400342F
:0A0DA0004D3449344434203400344B
:080DAA0028342D3429340034F3
:0C0DB2002034203420344334203400343A
:02400E004A2F37
:00000001FF
